{
  "_format": "hh-sol-artifact-1",
  "contractName": "NFTCollectionBridgeWrapper",
  "sourceName": "contracts/BaseBrdige/NFTBridge.sol",
  "abi": [
    {
      "inputs": [
        {
          "internalType": "address",
          "name": "_gatewayAddress",
          "type": "address"
        },
        {
          "internalType": "address",
          "name": "_godwokenNFTs",
          "type": "address"
        },
        {
          "internalType": "address",
          "name": "_treasuryAddress",
          "type": "address"
        }
      ],
      "stateMutability": "nonpayable",
      "type": "constructor"
    },
    {
      "anonymous": false,
      "inputs": [
        {
          "indexed": false,
          "internalType": "uint256",
          "name": "tamount",
          "type": "uint256"
        },
        {
          "indexed": false,
          "internalType": "uint256",
          "name": "tokenID",
          "type": "uint256"
        },
        {
          "indexed": false,
          "internalType": "address",
          "name": "sender",
          "type": "address"
        },
        {
          "indexed": false,
          "internalType": "address",
          "name": "collectionAddress",
          "type": "address"
        },
        {
          "indexed": false,
          "internalType": "string",
          "name": "uri",
          "type": "string"
        },
        {
          "indexed": false,
          "internalType": "string",
          "name": "collectionName",
          "type": "string"
        },
        {
          "indexed": false,
          "internalType": "uint256",
          "name": "destinationChainId",
          "type": "uint256"
        }
      ],
      "name": "DEPOSIT",
      "type": "event"
    },
    {
      "anonymous": false,
      "inputs": [
        {
          "indexed": true,
          "internalType": "address",
          "name": "previousOwner",
          "type": "address"
        },
        {
          "indexed": true,
          "internalType": "address",
          "name": "newOwner",
          "type": "address"
        }
      ],
      "name": "OwnershipTransferred",
      "type": "event"
    },
    {
      "anonymous": false,
      "inputs": [
        {
          "indexed": false,
          "internalType": "uint256",
          "name": "ethtokenID",
          "type": "uint256"
        },
        {
          "indexed": false,
          "internalType": "uint256",
          "name": "godowkenTokenId",
          "type": "uint256"
        },
        {
          "indexed": false,
          "internalType": "address",
          "name": "sender",
          "type": "address"
        },
        {
          "indexed": false,
          "internalType": "address",
          "name": "tokenAddress",
          "type": "address"
        }
      ],
      "name": "WITHDRAW",
      "type": "event"
    },
    {
      "inputs": [],
      "name": "blockBridge",
      "outputs": [
        {
          "internalType": "bool",
          "name": "",
          "type": "bool"
        }
      ],
      "stateMutability": "nonpayable",
      "type": "function"
    },
    {
      "inputs": [
        {
          "internalType": "uint256",
          "name": "value",
          "type": "uint256"
        }
      ],
      "name": "changeBridgeFee",
      "outputs": [
        {
          "internalType": "bool",
          "name": "",
          "type": "bool"
        }
      ],
      "stateMutability": "nonpayable",
      "type": "function"
    },
    {
      "inputs": [
        {
          "internalType": "address",
          "name": "_newGatewayAddress",
          "type": "address"
        }
      ],
      "name": "changeGatewayAddress",
      "outputs": [
        {
          "internalType": "bool",
          "name": "",
          "type": "bool"
        }
      ],
      "stateMutability": "nonpayable",
      "type": "function"
    },
    {
      "inputs": [
        {
          "internalType": "address",
          "name": "collectionAddress",
          "type": "address"
        },
        {
          "internalType": "uint256",
          "name": "_amount",
          "type": "uint256"
        },
        {
          "internalType": "uint256",
          "name": "_gasFees",
          "type": "uint256"
        },
        {
          "internalType": "uint256",
          "name": "_destChainId",
          "type": "uint256"
        },
        {
          "internalType": "uint256",
          "name": "_tokenID",
          "type": "uint256"
        },
        {
          "internalType": "string",
          "name": "uri",
          "type": "string"
        }
      ],
      "name": "deposit",
      "outputs": [
        {
          "internalType": "bool",
          "name": "",
          "type": "bool"
        }
      ],
      "stateMutability": "payable",
      "type": "function"
    },
    {
      "inputs": [],
      "name": "godwokenNFTs",
      "outputs": [
        {
          "internalType": "address",
          "name": "",
          "type": "address"
        }
      ],
      "stateMutability": "view",
      "type": "function"
    },
    {
      "inputs": [],
      "name": "isBlocked",
      "outputs": [
        {
          "internalType": "bool",
          "name": "",
          "type": "bool"
        }
      ],
      "stateMutability": "view",
      "type": "function"
    },
    {
      "inputs": [
        {
          "internalType": "uint256",
          "name": "_tokenID",
          "type": "uint256"
        },
        {
          "internalType": "address",
          "name": "collectionAddress",
          "type": "address"
        },
        {
          "internalType": "address",
          "name": "receiver",
          "type": "address"
        }
      ],
      "name": "mintOnGodwoken",
      "outputs": [
        {
          "internalType": "bool",
          "name": "",
          "type": "bool"
        }
      ],
      "stateMutability": "nonpayable",
      "type": "function"
    },
    {
      "inputs": [],
      "name": "owner",
      "outputs": [
        {
          "internalType": "address",
          "name": "",
          "type": "address"
        }
      ],
      "stateMutability": "view",
      "type": "function"
    },
    {
      "inputs": [],
      "name": "renounceOwnership",
      "outputs": [],
      "stateMutability": "nonpayable",
      "type": "function"
    },
    {
      "inputs": [
        {
          "internalType": "address",
          "name": "",
          "type": "address"
        },
        {
          "internalType": "uint256",
          "name": "",
          "type": "uint256"
        }
      ],
      "name": "tokenIdsMapOnGodwoken",
      "outputs": [
        {
          "internalType": "uint256",
          "name": "",
          "type": "uint256"
        }
      ],
      "stateMutability": "view",
      "type": "function"
    },
    {
      "inputs": [
        {
          "internalType": "address payable",
          "name": "_to",
          "type": "address"
        },
        {
          "internalType": "uint256",
          "name": "_amount",
          "type": "uint256"
        }
      ],
      "name": "transferFunds",
      "outputs": [],
      "stateMutability": "nonpayable",
      "type": "function"
    },
    {
      "inputs": [
        {
          "internalType": "address",
          "name": "newOwner",
          "type": "address"
        }
      ],
      "name": "transferOwnership",
      "outputs": [],
      "stateMutability": "nonpayable",
      "type": "function"
    },
    {
      "inputs": [],
      "name": "treasuryAddress",
      "outputs": [
        {
          "internalType": "address",
          "name": "",
          "type": "address"
        }
      ],
      "stateMutability": "view",
      "type": "function"
    },
    {
      "inputs": [],
      "name": "unblockBridge",
      "outputs": [
        {
          "internalType": "bool",
          "name": "",
          "type": "bool"
        }
      ],
      "stateMutability": "nonpayable",
      "type": "function"
    },
    {
      "inputs": [
        {
          "internalType": "uint256",
          "name": "_amount",
          "type": "uint256"
        }
      ],
      "name": "withdrawFunds",
      "outputs": [],
      "stateMutability": "nonpayable",
      "type": "function"
    },
    {
      "inputs": [
        {
          "internalType": "uint256[]",
          "name": "_tokenIds",
          "type": "uint256[]"
        },
        {
          "internalType": "address[]",
          "name": "_nftAddresses",
          "type": "address[]"
        },
        {
          "internalType": "address",
          "name": "_recepient",
          "type": "address"
        }
      ],
      "name": "withdrawNFTs",
      "outputs": [],
      "stateMutability": "nonpayable",
      "type": "function"
    }
  ],
  "bytecode": "0x6080604052662386f26fc100006001553480156200001c57600080fd5b50604051620016aa380380620016aa8339810160408190526200003f91620000f9565b6200004a3362000096565b600280546001600160a01b0394851661010002610100600160a81b0319909116179055600380549284166001600160a01b03199384161790556004805491909316911617905562000179565b600080546001600160a01b038381166001600160a01b0319831681178455604051919092169283917f8be0079c531659141344cd1fd0a4f28419497f9722a3daafe3b4186f6b6457e09190a35050565b8051620000f3816200015f565b92915050565b6000806000606084860312156200010f57600080fd5b60006200011d8686620000e6565b93505060206200013086828701620000e6565b92505060406200014386828701620000e6565b9150509250925092565b60006001600160a01b038216620000f3565b6200016a816200014d565b81146200017657600080fd5b50565b61152180620001896000396000f3fe6080604052600436106100f35760003560e01c8063977568bb1161008a578063c5f956af11610059578063c5f956af14610292578063d75f0da7146102b2578063e56b8fbf146102cc578063f2fde38b146102ec57600080fd5b8063977568bb146101f8578063990dc9db14610218578063a680312814610238578063c063f06d1461024d57600080fd5b80636f8423ac116100c65780636f8423ac14610183578063715018a61461019857806379489895146101ad5780638da5cb5b146101da57600080fd5b8063064d5a7c146100f85780630de382ce1461012e578063155dd5ee1461014e5780632f80c32214610170575b600080fd5b34801561010457600080fd5b50610118610113366004610eb6565b61030c565b604051610125919061123c565b60405180910390f35b34801561013a57600080fd5b50610118610149366004610ef2565b610369565b34801561015a57600080fd5b5061016e610169366004610eb6565b610560565b005b61011861017e366004610d5c565b610636565b34801561018f57600080fd5b506101186107fc565b3480156101a457600080fd5b5061016e61083b565b3480156101b957600080fd5b506003546101cd906001600160a01b031681565b6040516101259190611206565b3480156101e657600080fd5b506000546001600160a01b03166101cd565b34801561020457600080fd5b50610118610213366004610d04565b610871565b34801561022457600080fd5b5061016e610233366004610d22565b610903565b34801561024457600080fd5b506101186109d0565b34801561025957600080fd5b50610285610268366004610d22565b600560209081526000928352604080842090915290825290205481565b60405161012591906112da565b34801561029e57600080fd5b506004546101cd906001600160a01b031681565b3480156102be57600080fd5b506002546101189060ff1681565b3480156102d857600080fd5b5061016e6102e7366004610dfb565b610a0b565b3480156102f857600080fd5b5061016e610307366004610d04565b610b17565b600080546001600160a01b031633146103405760405162461bcd60e51b8152600401610337906112aa565b60405180910390fd5b8161035d5760405162461bcd60e51b81526004016103379061124a565b5060018181555b919050565b60025460009061010090046001600160a01b0316331461038857600080fd5b6001600160a01b0383166103ae5760405162461bcd60e51b8152600401610337906112ca565b6001600160a01b0382166103d45760405162461bcd60e51b8152600401610337906112ca565b600354604080517f18160ddd00000000000000000000000000000000000000000000000000000000815290516000926001600160a01b0316916318160ddd916004808301926020929190829003018186803b15801561043257600080fd5b505afa158015610446573d6000803e3d6000fd5b505050506040513d601f19601f8201168201806040525081019061046a9190610ed4565b6104759060016113de565b6003546040517f40d097c30000000000000000000000000000000000000000000000000000000081529192506001600160a01b0316906340d097c3906104bf908690600401611206565b600060405180830381600087803b1580156104d957600080fd5b505af11580156104ed573d6000803e3d6000fd5b5050506001600160a01b038516600090815260056020908152604080832089845290915290819020839055517faf5ff72c33ae8effcab4e0eb1b911e87b07e567b0e7c858daaae7086aaf57dca915061054d9087908490879089906112e8565b60405180910390a1506001949350505050565b6000546001600160a01b0316331461058a5760405162461bcd60e51b8152600401610337906112aa565b47808211156105ab5760405162461bcd60e51b81526004016103379061128a565b600080546001600160a01b03166001600160a01b0316836040516105ce906111fe565b60006040518083038185875af1925050503d806000811461060b576040519150601f19603f3d011682016040523d82523d6000602084013e610610565b606091505b50509050806106315760405162461bcd60e51b8152600401610337906112ba565b505050565b60006001600160a01b03871661065e5760405162461bcd60e51b8152600401610337906112ca565b60025460ff161515600114156106865760405162461bcd60e51b81526004016103379061129a565b8460015461069491906113de565b3410156106b35760405162461bcd60e51b81526004016103379061127a565b6000876001600160a01b03166306fdde036040518163ffffffff1660e01b815260040160006040518083038186803b1580156106ee57600080fd5b505afa158015610702573d6000803e3d6000fd5b505050506040513d6000823e601f3d908101601f1916820160405261072a9190810190610e81565b600480546040517f23b872dd0000000000000000000000000000000000000000000000000000000081529293506001600160a01b038b8116936323b872dd9361077993339316918a9101611214565b600060405180830381600087803b15801561079357600080fd5b505af11580156107a7573d6000803e3d6000fd5b505050507f9bcba40f2d055d84e54902d1289a799579310ae6c2a5e532d2e01e9518af02a58785338b87868b6040516107e69796959493929190611326565b60405180910390a1506001979650505050505050565b600080546001600160a01b031633146108275760405162461bcd60e51b8152600401610337906112aa565b506002805460ff1916600190811790915590565b6000546001600160a01b031633146108655760405162461bcd60e51b8152600401610337906112aa565b61086f6000610b73565b565b600080546001600160a01b0316331461089c5760405162461bcd60e51b8152600401610337906112aa565b6001600160a01b0382166108c25760405162461bcd60e51b81526004016103379061124a565b50600280546001600160a01b038316610100027fffffffffffffffffffffff0000000000000000000000000000000000000000ff9091161790556001919050565b6000546001600160a01b0316331461092d5760405162461bcd60e51b8152600401610337906112aa565b478082111561094e5760405162461bcd60e51b81526004016103379061128a565b6000836001600160a01b031683604051610967906111fe565b60006040518083038185875af1925050503d80600081146109a4576040519150601f19603f3d011682016040523d82523d6000602084013e6109a9565b606091505b50509050806109ca5760405162461bcd60e51b81526004016103379061126a565b50505050565b600080546001600160a01b031633146109fb5760405162461bcd60e51b8152600401610337906112aa565b506002805460ff19169055600190565b6000546001600160a01b03163314610a355760405162461bcd60e51b8152600401610337906112aa565b60005b84811015610b0f57838382818110610a6057634e487b7160e01b600052603260045260246000fd5b9050602002016020810190610a759190610d04565b6001600160a01b03166323b872dd3084898986818110610aa557634e487b7160e01b600052603260045260246000fd5b905060200201356040518463ffffffff1660e01b8152600401610aca93929190611214565b600060405180830381600087803b158015610ae457600080fd5b505af1158015610af8573d6000803e3d6000fd5b505050508080610b079061146c565b915050610a38565b505050505050565b6000546001600160a01b03163314610b415760405162461bcd60e51b8152600401610337906112aa565b6001600160a01b038116610b675760405162461bcd60e51b81526004016103379061125a565b610b7081610b73565b50565b600080546001600160a01b038381167fffffffffffffffffffffffff0000000000000000000000000000000000000000831681178455604051919092169283917f8be0079c531659141344cd1fd0a4f28419497f9722a3daafe3b4186f6b6457e09190a35050565b6000610bee610be9846113b3565b61139c565b905082815260208101848484011115610c0657600080fd5b610c11848285611407565b509392505050565b6000610c27610be9846113b3565b905082815260208101848484011115610c3f57600080fd5b610c11848285611413565b8035610c55816114d1565b92915050565b60008083601f840112610c6d57600080fd5b50813567ffffffffffffffff811115610c8557600080fd5b602083019150836020820283011115610c9d57600080fd5b9250929050565b600082601f830112610cb557600080fd5b8135610cc5848260208601610bdb565b949350505050565b600082601f830112610cde57600080fd5b8151610cc5848260208601610c19565b8035610c55816114e5565b8051610c55816114e5565b600060208284031215610d1657600080fd5b6000610cc58484610c4a565b60008060408385031215610d3557600080fd5b6000610d418585610c4a565b9250506020610d5285828601610cee565b9150509250929050565b60008060008060008060c08789031215610d7557600080fd5b6000610d818989610c4a565b9650506020610d9289828a01610cee565b9550506040610da389828a01610cee565b9450506060610db489828a01610cee565b9350506080610dc589828a01610cee565b92505060a087013567ffffffffffffffff811115610de257600080fd5b610dee89828a01610ca4565b9150509295509295509295565b600080600080600060608688031215610e1357600080fd5b853567ffffffffffffffff811115610e2a57600080fd5b610e3688828901610c5b565b9550955050602086013567ffffffffffffffff811115610e5557600080fd5b610e6188828901610c5b565b93509350506040610e7488828901610c4a565b9150509295509295909350565b600060208284031215610e9357600080fd5b815167ffffffffffffffff811115610eaa57600080fd5b610cc584828501610ccd565b600060208284031215610ec857600080fd5b6000610cc58484610cee565b600060208284031215610ee657600080fd5b6000610cc58484610cf9565b600080600060608486031215610f0757600080fd5b6000610f138686610cee565b9350506020610f2486828701610c4a565b9250506040610f3586828701610c4a565b9150509250925092565b610f48816113f6565b82525050565b801515610f48565b6000610f60825190565b808452602084019350610f77818560208601611413565b601f01601f19169290920192915050565b601181526000602082017f56616c75652063616e6e6f742062652030000000000000000000000000000000815291505b5060200190565b602681526000602082017f4f776e61626c653a206e6577206f776e657220697320746865207a65726f206181527f6464726573730000000000000000000000000000000000000000000000000000602082015291505b5060400190565b602381526000602082017f4661696c656420746f2073656e6420457468657220746f205f746f206164647281527f657373000000000000000000000000000000000000000000000000000000000060208201529150611015565b602281526000602082017f596f7520617265206e6f7420706179696e6720656e6f7567682067617320666581527f657300000000000000000000000000000000000000000000000000000000000060208201529150611015565b602781526000602082017f42726964676520436f6e747261637420646f6e2774206861766520656e6f756781527f682066756e64730000000000000000000000000000000000000000000000000060208201529150611015565b601b81526000602082017f42726964676520697320626c6f636b6564207269676874206e6f77000000000081529150610fb8565b60208082527f4f776e61626c653a2063616c6c6572206973206e6f7420746865206f776e657291019081526000610fb8565b601d81526000602082017f4661696c656420746f2073656e6420457468657220746f206f776e657200000081529150610fb8565b601381526000602082017f43616e6e6f74206265206164647265737320300000000000000000000000000081529150610fb8565b80610f48565b600081610c55565b60208101610c558284610f3f565b606081016112228286610f3f565b61122f6020830185610f3f565b610cc560408301846111f8565b60208101610c558284610f4e565b60208082528101610c5581610f88565b60208082528101610c5581610fbf565b60208082528101610c558161101c565b60208082528101610c5581611076565b60208082528101610c55816110d0565b60208082528101610c558161112a565b60208082528101610c558161115e565b60208082528101610c5581611190565b60208082528101610c55816111c4565b60208101610c5582846111f8565b608081016112f682876111f8565b61130360208301866111f8565b6113106040830185610f3f565b61131d6060830184610f3f565b95945050505050565b60e08101611334828a6111f8565b61134160208301896111f8565b61134e6040830188610f3f565b61135b6060830187610f3f565b818103608083015261136d8186610f56565b905081810360a08301526113818185610f56565b905061139060c08301846111f8565b98975050505050505050565b60006113a760405190565b9050610364828261143f565b600067ffffffffffffffff8211156113cd576113cd6114bb565b601f19601f83011660200192915050565b600082198211156113f1576113f16114a5565b500190565b60006001600160a01b038216610c55565b82818337506000910152565b60005b8381101561142e578181015183820152602001611416565b838111156109ca5750506000910152565b601f19601f830116810181811067ffffffffffffffff82111715611465576114656114bb565b6040525050565b60007fffffffffffffffffffffffffffffffffffffffffffffffffffffffffffffffff82141561149e5761149e6114a5565b5060010190565b634e487b7160e01b600052601160045260246000fd5b634e487b7160e01b600052604160045260246000fd5b6114da816113f6565b8114610b7057600080fd5b806114da56fea2646970667358221220e910476ab7e00ff4498fa59fef173416b74f3adf4a9710bec2a575fd4534f0da64736f6c63430008040033",
  "linkReferences": {},
  "deployedLinkReferences": {}
}