{
  "_format": "hh-sol-artifact-1",
  "contractName": "NFTCollectionBridgeWrapper",
  "sourceName": "contracts/BaseBrdige/PolyBridge.sol",
  "abi": [
    {
      "inputs": [
        {
          "internalType": "address",
          "name": "_gatewayAddress",
          "type": "address"
        },
        {
          "internalType": "address",
          "name": "_treasuryAddress",
          "type": "address"
        }
      ],
      "stateMutability": "nonpayable",
      "type": "constructor"
    },
    {
      "anonymous": false,
      "inputs": [
        {
          "indexed": false,
          "internalType": "uint256",
          "name": "tamount",
          "type": "uint256"
        },
        {
          "indexed": false,
          "internalType": "uint256",
          "name": "tokenID",
          "type": "uint256"
        },
        {
          "indexed": false,
          "internalType": "address",
          "name": "sender",
          "type": "address"
        },
        {
          "indexed": false,
          "internalType": "address",
          "name": "collectionAddress",
          "type": "address"
        },
        {
          "indexed": false,
          "internalType": "string",
          "name": "uri",
          "type": "string"
        },
        {
          "indexed": false,
          "internalType": "string",
          "name": "collectionName",
          "type": "string"
        },
        {
          "indexed": false,
          "internalType": "uint256",
          "name": "destinationChainId",
          "type": "uint256"
        }
      ],
      "name": "DEPOSIT",
      "type": "event"
    },
    {
      "anonymous": false,
      "inputs": [
        {
          "indexed": true,
          "internalType": "address",
          "name": "previousOwner",
          "type": "address"
        },
        {
          "indexed": true,
          "internalType": "address",
          "name": "newOwner",
          "type": "address"
        }
      ],
      "name": "OwnershipTransferred",
      "type": "event"
    },
    {
      "anonymous": false,
      "inputs": [
        {
          "indexed": false,
          "internalType": "uint256",
          "name": "ethtokenID",
          "type": "uint256"
        },
        {
          "indexed": false,
          "internalType": "uint256",
          "name": "godowkenTokenId",
          "type": "uint256"
        },
        {
          "indexed": false,
          "internalType": "address",
          "name": "sender",
          "type": "address"
        },
        {
          "indexed": false,
          "internalType": "address",
          "name": "tokenAddress",
          "type": "address"
        }
      ],
      "name": "WITHDRAW",
      "type": "event"
    },
    {
      "inputs": [],
      "name": "blockBridge",
      "outputs": [
        {
          "internalType": "bool",
          "name": "",
          "type": "bool"
        }
      ],
      "stateMutability": "nonpayable",
      "type": "function"
    },
    {
      "inputs": [
        {
          "internalType": "uint256",
          "name": "value",
          "type": "uint256"
        }
      ],
      "name": "changeBridgeFee",
      "outputs": [
        {
          "internalType": "bool",
          "name": "",
          "type": "bool"
        }
      ],
      "stateMutability": "nonpayable",
      "type": "function"
    },
    {
      "inputs": [
        {
          "internalType": "address",
          "name": "_newGatewayAddress",
          "type": "address"
        }
      ],
      "name": "changeGatewayAddress",
      "outputs": [
        {
          "internalType": "bool",
          "name": "",
          "type": "bool"
        }
      ],
      "stateMutability": "nonpayable",
      "type": "function"
    },
    {
      "inputs": [
        {
          "internalType": "address",
          "name": "collectionAddress",
          "type": "address"
        },
        {
          "internalType": "uint256",
          "name": "_amount",
          "type": "uint256"
        },
        {
          "internalType": "uint256",
          "name": "_gasFees",
          "type": "uint256"
        },
        {
          "internalType": "uint256",
          "name": "_destChainId",
          "type": "uint256"
        },
        {
          "internalType": "uint256",
          "name": "_tokenID",
          "type": "uint256"
        },
        {
          "internalType": "uint256",
          "name": "_contractType",
          "type": "uint256"
        },
        {
          "internalType": "string",
          "name": "uri",
          "type": "string"
        }
      ],
      "name": "deposit",
      "outputs": [
        {
          "internalType": "bool",
          "name": "",
          "type": "bool"
        }
      ],
      "stateMutability": "payable",
      "type": "function"
    },
    {
      "inputs": [],
      "name": "isBlocked",
      "outputs": [
        {
          "internalType": "bool",
          "name": "",
          "type": "bool"
        }
      ],
      "stateMutability": "view",
      "type": "function"
    },
    {
      "inputs": [],
      "name": "owner",
      "outputs": [
        {
          "internalType": "address",
          "name": "",
          "type": "address"
        }
      ],
      "stateMutability": "view",
      "type": "function"
    },
    {
      "inputs": [],
      "name": "renounceOwnership",
      "outputs": [],
      "stateMutability": "nonpayable",
      "type": "function"
    },
    {
      "inputs": [
        {
          "internalType": "address",
          "name": "",
          "type": "address"
        },
        {
          "internalType": "uint256",
          "name": "",
          "type": "uint256"
        }
      ],
      "name": "tokenIdsMapOnGodwoken",
      "outputs": [
        {
          "internalType": "uint256",
          "name": "",
          "type": "uint256"
        }
      ],
      "stateMutability": "view",
      "type": "function"
    },
    {
      "inputs": [
        {
          "internalType": "address payable",
          "name": "_to",
          "type": "address"
        },
        {
          "internalType": "uint256",
          "name": "_amount",
          "type": "uint256"
        }
      ],
      "name": "transferFunds",
      "outputs": [],
      "stateMutability": "nonpayable",
      "type": "function"
    },
    {
      "inputs": [
        {
          "internalType": "address",
          "name": "newOwner",
          "type": "address"
        }
      ],
      "name": "transferOwnership",
      "outputs": [],
      "stateMutability": "nonpayable",
      "type": "function"
    },
    {
      "inputs": [],
      "name": "treasuryAddress",
      "outputs": [
        {
          "internalType": "address",
          "name": "",
          "type": "address"
        }
      ],
      "stateMutability": "view",
      "type": "function"
    },
    {
      "inputs": [],
      "name": "unblockBridge",
      "outputs": [
        {
          "internalType": "bool",
          "name": "",
          "type": "bool"
        }
      ],
      "stateMutability": "nonpayable",
      "type": "function"
    },
    {
      "inputs": [
        {
          "internalType": "uint256",
          "name": "_amount",
          "type": "uint256"
        }
      ],
      "name": "withdrawFunds",
      "outputs": [],
      "stateMutability": "nonpayable",
      "type": "function"
    },
    {
      "inputs": [
        {
          "internalType": "uint256[]",
          "name": "_tokenIds",
          "type": "uint256[]"
        },
        {
          "internalType": "address[]",
          "name": "_nftAddresses",
          "type": "address[]"
        },
        {
          "internalType": "address",
          "name": "_recepient",
          "type": "address"
        }
      ],
      "name": "withdrawNFTs",
      "outputs": [],
      "stateMutability": "nonpayable",
      "type": "function"
    }
  ],
  "bytecode": "0x6080604052662386f26fc100006001553480156200001c57600080fd5b5060405162001dd438038062001dd4833981810160405281019062000042919062000222565b6200006262000056620000ec60201b60201c565b620000f460201b60201c565b81600260016101000a81548173ffffffffffffffffffffffffffffffffffffffff021916908373ffffffffffffffffffffffffffffffffffffffff16021790555080600360006101000a81548173ffffffffffffffffffffffffffffffffffffffff021916908373ffffffffffffffffffffffffffffffffffffffff160217905550505062000269565b600033905090565b60008060009054906101000a900473ffffffffffffffffffffffffffffffffffffffff169050816000806101000a81548173ffffffffffffffffffffffffffffffffffffffff021916908373ffffffffffffffffffffffffffffffffffffffff1602179055508173ffffffffffffffffffffffffffffffffffffffff168173ffffffffffffffffffffffffffffffffffffffff167f8be0079c531659141344cd1fd0a4f28419497f9722a3daafe3b4186f6b6457e060405160405180910390a35050565b600080fd5b600073ffffffffffffffffffffffffffffffffffffffff82169050919050565b6000620001ea82620001bd565b9050919050565b620001fc81620001dd565b81146200020857600080fd5b50565b6000815190506200021c81620001f1565b92915050565b600080604083850312156200023c576200023b620001b8565b5b60006200024c858286016200020b565b92505060206200025f858286016200020b565b9150509250929050565b611b5b80620002796000396000f3fe6080604052600436106100dd5760003560e01c8063a68031281161007f578063c5f956af11610059578063c5f956af146102b3578063d75f0da7146102de578063e56b8fbf14610309578063f2fde38b14610332576100dd565b8063a68031281461021b578063bdd6b0dd14610246578063c063f06d14610276576100dd565b8063715018a6116100bb578063715018a6146101735780638da5cb5b1461018a578063977568bb146101b5578063990dc9db146101f2576100dd565b8063064d5a7c146100e2578063155dd5ee1461011f5780636f8423ac14610148575b600080fd5b3480156100ee57600080fd5b5061010960048036038101906101049190610dda565b61035b565b6040516101169190610e22565b60405180910390f35b34801561012b57600080fd5b5061014660048036038101906101419190610dda565b6103b8565b005b34801561015457600080fd5b5061015d6104c0565b60405161016a9190610e22565b60405180910390f35b34801561017f57600080fd5b506101886104ec565b005b34801561019657600080fd5b5061019f610500565b6040516101ac9190610e7e565b60405180910390f35b3480156101c157600080fd5b506101dc60048036038101906101d79190610ec5565b610529565b6040516101e99190610e22565b60405180910390f35b3480156101fe57600080fd5b5061021960048036038101906102149190610f30565b6105ec565b005b34801561022757600080fd5b506102306106ee565b60405161023d9190610e22565b60405180910390f35b610260600480360381019061025b91906110b6565b61071a565b60405161026d9190610e22565b60405180910390f35b34801561028257600080fd5b5061029d60048036038101906102989190611174565b610a85565b6040516102aa91906111c3565b60405180910390f35b3480156102bf57600080fd5b506102c8610aaa565b6040516102d59190610e7e565b60405180910390f35b3480156102ea57600080fd5b506102f3610ad0565b6040516103009190610e22565b60405180910390f35b34801561031557600080fd5b50610330600480360381019061032b9190611294565b610ae3565b005b34801561033e57600080fd5b5061035960048036038101906103549190610ec5565b610bc3565b005b6000610365610c46565b600082036103a8576040517f08c379a000000000000000000000000000000000000000000000000000000000815260040161039f90611386565b60405180910390fd5b8160018190555060019050919050565b6103c0610c46565b600047905080821115610408576040517f08c379a00000000000000000000000000000000000000000000000000000000081526004016103ff90611418565b60405180910390fd5b6000610412610500565b73ffffffffffffffffffffffffffffffffffffffff168360405161043590611469565b60006040518083038185875af1925050503d8060008114610472576040519150601f19603f3d011682016040523d82523d6000602084013e610477565b606091505b50509050806104bb576040517f08c379a00000000000000000000000000000000000000000000000000000000081526004016104b2906114ca565b60405180910390fd5b505050565b60006104ca610c46565b6001600260006101000a81548160ff0219169083151502179055506001905090565b6104f4610c46565b6104fe6000610cc4565b565b60008060009054906101000a900473ffffffffffffffffffffffffffffffffffffffff16905090565b6000610533610c46565b600073ffffffffffffffffffffffffffffffffffffffff168273ffffffffffffffffffffffffffffffffffffffff16036105a2576040517f08c379a000000000000000000000000000000000000000000000000000000000815260040161059990611386565b60405180910390fd5b81600260016101000a81548173ffffffffffffffffffffffffffffffffffffffff021916908373ffffffffffffffffffffffffffffffffffffffff16021790555060019050919050565b6105f4610c46565b60004790508082111561063c576040517f08c379a000000000000000000000000000000000000000000000000000000000815260040161063390611418565b60405180910390fd5b60008373ffffffffffffffffffffffffffffffffffffffff168360405161066290611469565b60006040518083038185875af1925050503d806000811461069f576040519150601f19603f3d011682016040523d82523d6000602084013e6106a4565b606091505b50509050806106e8576040517f08c379a00000000000000000000000000000000000000000000000000000000081526004016106df9061155c565b60405180910390fd5b50505050565b60006106f8610c46565b6000600260006101000a81548160ff0219169083151502179055506001905090565b60008073ffffffffffffffffffffffffffffffffffffffff168873ffffffffffffffffffffffffffffffffffffffff160361078a576040517f08c379a0000000000000000000000000000000000000000000000000000000008152600401610781906115c8565b60405180910390fd5b60011515600260009054906101000a900460ff161515036107e0576040517f08c379a00000000000000000000000000000000000000000000000000000000081526004016107d790611634565b60405180910390fd5b856001546107ee9190611683565b341015610830576040517f08c379a000000000000000000000000000000000000000000000000000000000815260040161082790611729565b60405180910390fd5b60006040518060200160405280600081525090506000840361095f578873ffffffffffffffffffffffffffffffffffffffff166306fdde036040518163ffffffff1660e01b8152600401600060405180830381865afa158015610897573d6000803e3d6000fd5b505050506040513d6000823e3d601f19601f820116820180604052508101906108c091906117e3565b90508873ffffffffffffffffffffffffffffffffffffffff166323b872dd6108e6610d88565b600360009054906101000a900473ffffffffffffffffffffffffffffffffffffffff16886040518463ffffffff1660e01b81526004016109289392919061182c565b600060405180830381600087803b15801561094257600080fd5b505af1158015610956573d6000803e3d6000fd5b50505050610a32565b6040518060400160405280601681526020017f4552433131353520626173656420636f6e74726163740000000000000000000081525090508873ffffffffffffffffffffffffffffffffffffffff1663f242432a6109bb610d88565b600360009054906101000a900473ffffffffffffffffffffffffffffffffffffffff16888c6040518563ffffffff1660e01b81526004016109ff9493929190611897565b600060405180830381600087803b158015610a1957600080fd5b505af1158015610a2d573d6000803e3d6000fd5b505050505b7f9bcba40f2d055d84e54902d1289a799579310ae6c2a5e532d2e01e9518af02a58886338c87868c604051610a6d9796959493929190611933565b60405180910390a16001915050979650505050505050565b6004602052816000526040600020602052806000526040600020600091509150505481565b600360009054906101000a900473ffffffffffffffffffffffffffffffffffffffff1681565b600260009054906101000a900460ff1681565b610aeb610c46565b60005b85859050811015610bbb57838382818110610b0c57610b0b6119b0565b5b9050602002016020810190610b219190610ec5565b73ffffffffffffffffffffffffffffffffffffffff166323b872dd3084898986818110610b5157610b506119b0565b5b905060200201356040518463ffffffff1660e01b8152600401610b769392919061182c565b600060405180830381600087803b158015610b9057600080fd5b505af1158015610ba4573d6000803e3d6000fd5b505050508080610bb3906119df565b915050610aee565b505050505050565b610bcb610c46565b600073ffffffffffffffffffffffffffffffffffffffff168173ffffffffffffffffffffffffffffffffffffffff1603610c3a576040517f08c379a0000000000000000000000000000000000000000000000000000000008152600401610c3190611a99565b60405180910390fd5b610c4381610cc4565b50565b610c4e610d88565b73ffffffffffffffffffffffffffffffffffffffff16610c6c610500565b73ffffffffffffffffffffffffffffffffffffffff1614610cc2576040517f08c379a0000000000000000000000000000000000000000000000000000000008152600401610cb990611b05565b60405180910390fd5b565b60008060009054906101000a900473ffffffffffffffffffffffffffffffffffffffff169050816000806101000a81548173ffffffffffffffffffffffffffffffffffffffff021916908373ffffffffffffffffffffffffffffffffffffffff1602179055508173ffffffffffffffffffffffffffffffffffffffff168173ffffffffffffffffffffffffffffffffffffffff167f8be0079c531659141344cd1fd0a4f28419497f9722a3daafe3b4186f6b6457e060405160405180910390a35050565b600033905090565b6000604051905090565b600080fd5b600080fd5b6000819050919050565b610db781610da4565b8114610dc257600080fd5b50565b600081359050610dd481610dae565b92915050565b600060208284031215610df057610def610d9a565b5b6000610dfe84828501610dc5565b91505092915050565b60008115159050919050565b610e1c81610e07565b82525050565b6000602082019050610e376000830184610e13565b92915050565b600073ffffffffffffffffffffffffffffffffffffffff82169050919050565b6000610e6882610e3d565b9050919050565b610e7881610e5d565b82525050565b6000602082019050610e936000830184610e6f565b92915050565b610ea281610e5d565b8114610ead57600080fd5b50565b600081359050610ebf81610e99565b92915050565b600060208284031215610edb57610eda610d9a565b5b6000610ee984828501610eb0565b91505092915050565b6000610efd82610e3d565b9050919050565b610f0d81610ef2565b8114610f1857600080fd5b50565b600081359050610f2a81610f04565b92915050565b60008060408385031215610f4757610f46610d9a565b5b6000610f5585828601610f1b565b9250506020610f6685828601610dc5565b9150509250929050565b600080fd5b600080fd5b6000601f19601f8301169050919050565b7f4e487b7100000000000000000000000000000000000000000000000000000000600052604160045260246000fd5b610fc382610f7a565b810181811067ffffffffffffffff82111715610fe257610fe1610f8b565b5b80604052505050565b6000610ff5610d90565b90506110018282610fba565b919050565b600067ffffffffffffffff82111561102157611020610f8b565b5b61102a82610f7a565b9050602081019050919050565b82818337600083830152505050565b600061105961105484611006565b610feb565b90508281526020810184848401111561107557611074610f75565b5b611080848285611037565b509392505050565b600082601f83011261109d5761109c610f70565b5b81356110ad848260208601611046565b91505092915050565b600080600080600080600060e0888a0312156110d5576110d4610d9a565b5b60006110e38a828b01610eb0565b97505060206110f48a828b01610dc5565b96505060406111058a828b01610dc5565b95505060606111168a828b01610dc5565b94505060806111278a828b01610dc5565b93505060a06111388a828b01610dc5565b92505060c088013567ffffffffffffffff81111561115957611158610d9f565b5b6111658a828b01611088565b91505092959891949750929550565b6000806040838503121561118b5761118a610d9a565b5b600061119985828601610eb0565b92505060206111aa85828601610dc5565b9150509250929050565b6111bd81610da4565b82525050565b60006020820190506111d860008301846111b4565b92915050565b600080fd5b600080fd5b60008083601f8401126111fe576111fd610f70565b5b8235905067ffffffffffffffff81111561121b5761121a6111de565b5b602083019150836020820283011115611237576112366111e3565b5b9250929050565b60008083601f84011261125457611253610f70565b5b8235905067ffffffffffffffff811115611271576112706111de565b5b60208301915083602082028301111561128d5761128c6111e3565b5b9250929050565b6000806000806000606086880312156112b0576112af610d9a565b5b600086013567ffffffffffffffff8111156112ce576112cd610d9f565b5b6112da888289016111e8565b9550955050602086013567ffffffffffffffff8111156112fd576112fc610d9f565b5b6113098882890161123e565b9350935050604061131c88828901610eb0565b9150509295509295909350565b600082825260208201905092915050565b7f56616c75652063616e6e6f742062652030000000000000000000000000000000600082015250565b6000611370601183611329565b915061137b8261133a565b602082019050919050565b6000602082019050818103600083015261139f81611363565b9050919050565b7f42726964676520436f6e747261637420646f6e2774206861766520656e6f756760008201527f682066756e647300000000000000000000000000000000000000000000000000602082015250565b6000611402602783611329565b915061140d826113a6565b604082019050919050565b60006020820190508181036000830152611431816113f5565b9050919050565b600081905092915050565b50565b6000611453600083611438565b915061145e82611443565b600082019050919050565b600061147482611446565b9150819050919050565b7f4661696c656420746f2073656e6420457468657220746f206f776e6572000000600082015250565b60006114b4601d83611329565b91506114bf8261147e565b602082019050919050565b600060208201905081810360008301526114e3816114a7565b9050919050565b7f4661696c656420746f2073656e6420457468657220746f205f746f206164647260008201527f6573730000000000000000000000000000000000000000000000000000000000602082015250565b6000611546602383611329565b9150611551826114ea565b604082019050919050565b6000602082019050818103600083015261157581611539565b9050919050565b7f43616e6e6f742062652061646472657373203000000000000000000000000000600082015250565b60006115b2601383611329565b91506115bd8261157c565b602082019050919050565b600060208201905081810360008301526115e1816115a5565b9050919050565b7f42726964676520697320626c6f636b6564207269676874206e6f770000000000600082015250565b600061161e601b83611329565b9150611629826115e8565b602082019050919050565b6000602082019050818103600083015261164d81611611565b9050919050565b7f4e487b7100000000000000000000000000000000000000000000000000000000600052601160045260246000fd5b600061168e82610da4565b915061169983610da4565b92508282019050808211156116b1576116b0611654565b5b92915050565b7f596f7520617265206e6f7420706179696e6720656e6f7567682067617320666560008201527f6573000000000000000000000000000000000000000000000000000000000000602082015250565b6000611713602283611329565b915061171e826116b7565b604082019050919050565b6000602082019050818103600083015261174281611706565b9050919050565b60005b8381101561176757808201518184015260208101905061174c565b60008484015250505050565b600061178661178184611006565b610feb565b9050828152602081018484840111156117a2576117a1610f75565b5b6117ad848285611749565b509392505050565b600082601f8301126117ca576117c9610f70565b5b81516117da848260208601611773565b91505092915050565b6000602082840312156117f9576117f8610d9a565b5b600082015167ffffffffffffffff81111561181757611816610d9f565b5b611823848285016117b5565b91505092915050565b60006060820190506118416000830186610e6f565b61184e6020830185610e6f565b61185b60408301846111b4565b949350505050565b600082825260208201905092915050565b6000611881600083611863565b915061188c82611443565b600082019050919050565b600060a0820190506118ac6000830187610e6f565b6118b96020830186610e6f565b6118c660408301856111b4565b6118d360608301846111b4565b81810360808301526118e481611874565b905095945050505050565b600081519050919050565b6000611905826118ef565b61190f8185611329565b935061191f818560208601611749565b61192881610f7a565b840191505092915050565b600060e082019050611948600083018a6111b4565b61195560208301896111b4565b6119626040830188610e6f565b61196f6060830187610e6f565b818103608083015261198181866118fa565b905081810360a083015261199581856118fa565b90506119a460c08301846111b4565b98975050505050505050565b7f4e487b7100000000000000000000000000000000000000000000000000000000600052603260045260246000fd5b60006119ea82610da4565b91507fffffffffffffffffffffffffffffffffffffffffffffffffffffffffffffffff8203611a1c57611a1b611654565b5b600182019050919050565b7f4f776e61626c653a206e6577206f776e657220697320746865207a65726f206160008201527f6464726573730000000000000000000000000000000000000000000000000000602082015250565b6000611a83602683611329565b9150611a8e82611a27565b604082019050919050565b60006020820190508181036000830152611ab281611a76565b9050919050565b7f4f776e61626c653a2063616c6c6572206973206e6f7420746865206f776e6572600082015250565b6000611aef602083611329565b9150611afa82611ab9565b602082019050919050565b60006020820190508181036000830152611b1e81611ae2565b905091905056fea26469706673582212207841289925f25192156f3199b7a8f67a0c26ffa49b8dbe0e98ae5a60d96c340d64736f6c63430008120033",
  "linkReferences": {},
  "deployedLinkReferences": {}
}