{
  "_format": "hh-sol-artifact-1",
  "contractName": "GodwokenNFT",
  "sourceName": "contracts/BaseBrdige/GodwokenNFT.sol",
  "abi": [
    {
      "inputs": [],
      "stateMutability": "nonpayable",
      "type": "constructor"
    },
    {
      "anonymous": false,
      "inputs": [
        {
          "indexed": true,
          "internalType": "address",
          "name": "owner",
          "type": "address"
        },
        {
          "indexed": true,
          "internalType": "address",
          "name": "approved",
          "type": "address"
        },
        {
          "indexed": true,
          "internalType": "uint256",
          "name": "tokenId",
          "type": "uint256"
        }
      ],
      "name": "Approval",
      "type": "event"
    },
    {
      "anonymous": false,
      "inputs": [
        {
          "indexed": true,
          "internalType": "address",
          "name": "owner",
          "type": "address"
        },
        {
          "indexed": true,
          "internalType": "address",
          "name": "operator",
          "type": "address"
        },
        {
          "indexed": false,
          "internalType": "bool",
          "name": "approved",
          "type": "bool"
        }
      ],
      "name": "ApprovalForAll",
      "type": "event"
    },
    {
      "anonymous": false,
      "inputs": [
        {
          "indexed": true,
          "internalType": "bytes32",
          "name": "role",
          "type": "bytes32"
        },
        {
          "indexed": true,
          "internalType": "bytes32",
          "name": "previousAdminRole",
          "type": "bytes32"
        },
        {
          "indexed": true,
          "internalType": "bytes32",
          "name": "newAdminRole",
          "type": "bytes32"
        }
      ],
      "name": "RoleAdminChanged",
      "type": "event"
    },
    {
      "anonymous": false,
      "inputs": [
        {
          "indexed": true,
          "internalType": "bytes32",
          "name": "role",
          "type": "bytes32"
        },
        {
          "indexed": true,
          "internalType": "address",
          "name": "account",
          "type": "address"
        },
        {
          "indexed": true,
          "internalType": "address",
          "name": "sender",
          "type": "address"
        }
      ],
      "name": "RoleGranted",
      "type": "event"
    },
    {
      "anonymous": false,
      "inputs": [
        {
          "indexed": true,
          "internalType": "bytes32",
          "name": "role",
          "type": "bytes32"
        },
        {
          "indexed": true,
          "internalType": "address",
          "name": "account",
          "type": "address"
        },
        {
          "indexed": true,
          "internalType": "address",
          "name": "sender",
          "type": "address"
        }
      ],
      "name": "RoleRevoked",
      "type": "event"
    },
    {
      "anonymous": false,
      "inputs": [
        {
          "indexed": true,
          "internalType": "address",
          "name": "from",
          "type": "address"
        },
        {
          "indexed": true,
          "internalType": "address",
          "name": "to",
          "type": "address"
        },
        {
          "indexed": true,
          "internalType": "uint256",
          "name": "tokenId",
          "type": "uint256"
        }
      ],
      "name": "Transfer",
      "type": "event"
    },
    {
      "inputs": [],
      "name": "DEFAULT_ADMIN_ROLE",
      "outputs": [
        {
          "internalType": "bytes32",
          "name": "",
          "type": "bytes32"
        }
      ],
      "stateMutability": "view",
      "type": "function"
    },
    {
      "inputs": [],
      "name": "MINTER_ROLE",
      "outputs": [
        {
          "internalType": "bytes32",
          "name": "",
          "type": "bytes32"
        }
      ],
      "stateMutability": "view",
      "type": "function"
    },
    {
      "inputs": [
        {
          "internalType": "address",
          "name": "_minter",
          "type": "address"
        }
      ],
      "name": "addMinterRole",
      "outputs": [],
      "stateMutability": "nonpayable",
      "type": "function"
    },
    {
      "inputs": [
        {
          "internalType": "address",
          "name": "to",
          "type": "address"
        },
        {
          "internalType": "uint256",
          "name": "tokenId",
          "type": "uint256"
        }
      ],
      "name": "approve",
      "outputs": [],
      "stateMutability": "nonpayable",
      "type": "function"
    },
    {
      "inputs": [
        {
          "internalType": "address",
          "name": "owner",
          "type": "address"
        }
      ],
      "name": "balanceOf",
      "outputs": [
        {
          "internalType": "uint256",
          "name": "",
          "type": "uint256"
        }
      ],
      "stateMutability": "view",
      "type": "function"
    },
    {
      "inputs": [
        {
          "internalType": "uint256",
          "name": "tokenId",
          "type": "uint256"
        }
      ],
      "name": "getApproved",
      "outputs": [
        {
          "internalType": "address",
          "name": "",
          "type": "address"
        }
      ],
      "stateMutability": "view",
      "type": "function"
    },
    {
      "inputs": [
        {
          "internalType": "bytes32",
          "name": "role",
          "type": "bytes32"
        }
      ],
      "name": "getRoleAdmin",
      "outputs": [
        {
          "internalType": "bytes32",
          "name": "",
          "type": "bytes32"
        }
      ],
      "stateMutability": "view",
      "type": "function"
    },
    {
      "inputs": [
        {
          "internalType": "bytes32",
          "name": "role",
          "type": "bytes32"
        },
        {
          "internalType": "address",
          "name": "account",
          "type": "address"
        }
      ],
      "name": "grantRole",
      "outputs": [],
      "stateMutability": "nonpayable",
      "type": "function"
    },
    {
      "inputs": [
        {
          "internalType": "bytes32",
          "name": "role",
          "type": "bytes32"
        },
        {
          "internalType": "address",
          "name": "account",
          "type": "address"
        }
      ],
      "name": "hasRole",
      "outputs": [
        {
          "internalType": "bool",
          "name": "",
          "type": "bool"
        }
      ],
      "stateMutability": "view",
      "type": "function"
    },
    {
      "inputs": [
        {
          "internalType": "address",
          "name": "owner",
          "type": "address"
        },
        {
          "internalType": "address",
          "name": "operator",
          "type": "address"
        }
      ],
      "name": "isApprovedForAll",
      "outputs": [
        {
          "internalType": "bool",
          "name": "",
          "type": "bool"
        }
      ],
      "stateMutability": "view",
      "type": "function"
    },
    {
      "inputs": [],
      "name": "name",
      "outputs": [
        {
          "internalType": "string",
          "name": "",
          "type": "string"
        }
      ],
      "stateMutability": "view",
      "type": "function"
    },
    {
      "inputs": [
        {
          "internalType": "uint256",
          "name": "tokenId",
          "type": "uint256"
        }
      ],
      "name": "ownerOf",
      "outputs": [
        {
          "internalType": "address",
          "name": "",
          "type": "address"
        }
      ],
      "stateMutability": "view",
      "type": "function"
    },
    {
      "inputs": [
        {
          "internalType": "bytes32",
          "name": "role",
          "type": "bytes32"
        },
        {
          "internalType": "address",
          "name": "account",
          "type": "address"
        }
      ],
      "name": "renounceRole",
      "outputs": [],
      "stateMutability": "nonpayable",
      "type": "function"
    },
    {
      "inputs": [
        {
          "internalType": "bytes32",
          "name": "role",
          "type": "bytes32"
        },
        {
          "internalType": "address",
          "name": "account",
          "type": "address"
        }
      ],
      "name": "revokeRole",
      "outputs": [],
      "stateMutability": "nonpayable",
      "type": "function"
    },
    {
      "inputs": [
        {
          "internalType": "address",
          "name": "to",
          "type": "address"
        },
        {
          "internalType": "uint256",
          "name": "tokenId",
          "type": "uint256"
        },
        {
          "internalType": "string",
          "name": "uri",
          "type": "string"
        }
      ],
      "name": "safeMint",
      "outputs": [],
      "stateMutability": "nonpayable",
      "type": "function"
    },
    {
      "inputs": [
        {
          "internalType": "address",
          "name": "from",
          "type": "address"
        },
        {
          "internalType": "address",
          "name": "to",
          "type": "address"
        },
        {
          "internalType": "uint256",
          "name": "tokenId",
          "type": "uint256"
        }
      ],
      "name": "safeTransferFrom",
      "outputs": [],
      "stateMutability": "nonpayable",
      "type": "function"
    },
    {
      "inputs": [
        {
          "internalType": "address",
          "name": "from",
          "type": "address"
        },
        {
          "internalType": "address",
          "name": "to",
          "type": "address"
        },
        {
          "internalType": "uint256",
          "name": "tokenId",
          "type": "uint256"
        },
        {
          "internalType": "bytes",
          "name": "_data",
          "type": "bytes"
        }
      ],
      "name": "safeTransferFrom",
      "outputs": [],
      "stateMutability": "nonpayable",
      "type": "function"
    },
    {
      "inputs": [
        {
          "internalType": "address",
          "name": "operator",
          "type": "address"
        },
        {
          "internalType": "bool",
          "name": "approved",
          "type": "bool"
        }
      ],
      "name": "setApprovalForAll",
      "outputs": [],
      "stateMutability": "nonpayable",
      "type": "function"
    },
    {
      "inputs": [
        {
          "internalType": "bytes4",
          "name": "interfaceId",
          "type": "bytes4"
        }
      ],
      "name": "supportsInterface",
      "outputs": [
        {
          "internalType": "bool",
          "name": "",
          "type": "bool"
        }
      ],
      "stateMutability": "view",
      "type": "function"
    },
    {
      "inputs": [],
      "name": "symbol",
      "outputs": [
        {
          "internalType": "string",
          "name": "",
          "type": "string"
        }
      ],
      "stateMutability": "view",
      "type": "function"
    },
    {
      "inputs": [
        {
          "internalType": "uint256",
          "name": "index",
          "type": "uint256"
        }
      ],
      "name": "tokenByIndex",
      "outputs": [
        {
          "internalType": "uint256",
          "name": "",
          "type": "uint256"
        }
      ],
      "stateMutability": "view",
      "type": "function"
    },
    {
      "inputs": [
        {
          "internalType": "address",
          "name": "owner",
          "type": "address"
        },
        {
          "internalType": "uint256",
          "name": "index",
          "type": "uint256"
        }
      ],
      "name": "tokenOfOwnerByIndex",
      "outputs": [
        {
          "internalType": "uint256",
          "name": "",
          "type": "uint256"
        }
      ],
      "stateMutability": "view",
      "type": "function"
    },
    {
      "inputs": [
        {
          "internalType": "uint256",
          "name": "tokenId",
          "type": "uint256"
        }
      ],
      "name": "tokenURI",
      "outputs": [
        {
          "internalType": "string",
          "name": "",
          "type": "string"
        }
      ],
      "stateMutability": "view",
      "type": "function"
    },
    {
      "inputs": [],
      "name": "totalSupply",
      "outputs": [
        {
          "internalType": "uint256",
          "name": "",
          "type": "uint256"
        }
      ],
      "stateMutability": "view",
      "type": "function"
    },
    {
      "inputs": [
        {
          "internalType": "address",
          "name": "from",
          "type": "address"
        },
        {
          "internalType": "address",
          "name": "to",
          "type": "address"
        },
        {
          "internalType": "uint256",
          "name": "tokenId",
          "type": "uint256"
        }
      ],
      "name": "transferFrom",
      "outputs": [],
      "stateMutability": "nonpayable",
      "type": "function"
    }
  ],
  "bytecode": "0x60806040523480156200001157600080fd5b50604080518082018252600781526626bcaa37b5b2b760c91b6020808301918252835180850190945260038452624d544b60e81b9084015281519192916200005c916000916200015b565b508051620000729060019060208401906200015b565b506200008491506000905033620000b6565b620000b07f9f2df0fed2c77648de5860a4cc508cd0818c85b8b8a1ab4ceeef8d981c8956a633620000b6565b6200023e565b6000828152600b602090815260408083206001600160a01b038516845290915290205460ff1662000157576000828152600b602090815260408083206001600160a01b03851684529091529020805460ff19166001179055620001163390565b6001600160a01b0316816001600160a01b0316837f2f8788117e7eff1d82e926ec794901d17c78024a50270940304540a733656f0d60405160405180910390a45b5050565b828054620001699062000201565b90600052602060002090601f0160209004810192826200018d5760008555620001d8565b82601f10620001a857805160ff1916838001178555620001d8565b82800160010185558215620001d8579182015b82811115620001d8578251825591602001919060010190620001bb565b50620001e6929150620001ea565b5090565b5b80821115620001e65760008155600101620001eb565b600181811c908216806200021657607f821691505b602082108114156200023857634e487b7160e01b600052602260045260246000fd5b50919050565b6126a7806200024e6000396000f3fe608060405234801561001057600080fd5b50600436106101a35760003560e01c80636352211e116100ee578063adbf377611610097578063cd279c7c11610071578063cd279c7c14610387578063d53913931461039a578063d547741f146103c1578063e985e9c5146103d457600080fd5b8063adbf37761461034e578063b88d4fde14610361578063c87b56dd1461037457600080fd5b806395d89b41116100c857806395d89b411461032b578063a217fddf14610333578063a22cb4651461033b57600080fd5b80636352211e146102cc57806370a08231146102df57806391d14854146102f257600080fd5b8063248a9ca31161015057806336568abe1161012a57806336568abe1461029357806342842e0e146102a65780634f6ccce7146102b957600080fd5b8063248a9ca31461024a5780632f2ff15d1461026d5780632f745c591461028057600080fd5b8063095ea7b311610181578063095ea7b31461021057806318160ddd1461022557806323b872dd1461023757600080fd5b806301ffc9a7146101a857806306fdde03146101d0578063081812fc146101e5575b600080fd5b6101bb6101b63660046123a7565b610410565b60405190151581526020015b60405180910390f35b6101d8610421565b6040516101c791906124f7565b6101f86101f336600461236d565b6104b3565b6040516001600160a01b0390911681526020016101c7565b61022361021e3660046122dc565b61055e565b005b6008545b6040519081526020016101c7565b6102236102453660046121ee565b610690565b61022961025836600461236d565b6000908152600b602052604090206001015490565b61022361027b366004612385565b610717565b61022961028e3660046122dc565b61073c565b6102236102a1366004612385565b6107e4565b6102236102b43660046121ee565b610870565b6102296102c736600461236d565b61088b565b6101f86102da36600461236d565b61093d565b6102296102ed3660046121a2565b6109c8565b6101bb610300366004612385565b6000918252600b602090815260408084206001600160a01b0393909316845291905290205460ff1690565b6101d8610a62565b610229600081565b6102236103493660046122a2565b610a71565b61022361035c3660046121a2565b610a7c565b61022361036f366004612229565b610ab1565b6101d861038236600461236d565b610b3f565b610223610395366004612305565b610b4a565b6102297f9f2df0fed2c77648de5860a4cc508cd0818c85b8b8a1ab4ceeef8d981c8956a681565b6102236103cf366004612385565b610b88565b6101bb6103e23660046121bc565b6001600160a01b03918216600090815260056020908152604080832093909416825291909152205460ff1690565b600061041b82610bad565b92915050565b606060008054610430906125af565b80601f016020809104026020016040519081016040528092919081815260200182805461045c906125af565b80156104a95780601f1061047e576101008083540402835291602001916104a9565b820191906000526020600020905b81548152906001019060200180831161048c57829003601f168201915b5050505050905090565b6000818152600260205260408120546001600160a01b03166105425760405162461bcd60e51b815260206004820152602c60248201527f4552433732313a20617070726f76656420717565727920666f72206e6f6e657860448201527f697374656e7420746f6b656e000000000000000000000000000000000000000060648201526084015b60405180910390fd5b506000908152600460205260409020546001600160a01b031690565b60006105698261093d565b9050806001600160a01b0316836001600160a01b031614156105f35760405162461bcd60e51b815260206004820152602160248201527f4552433732313a20617070726f76616c20746f2063757272656e74206f776e6560448201527f72000000000000000000000000000000000000000000000000000000000000006064820152608401610539565b336001600160a01b038216148061060f575061060f81336103e2565b6106815760405162461bcd60e51b815260206004820152603860248201527f4552433732313a20617070726f76652063616c6c6572206973206e6f74206f7760448201527f6e6572206e6f7220617070726f76656420666f7220616c6c00000000000000006064820152608401610539565b61068b8383610beb565b505050565b61069a3382610c66565b61070c5760405162461bcd60e51b815260206004820152603160248201527f4552433732313a207472616e736665722063616c6c6572206973206e6f74206f60448201527f776e6572206e6f7220617070726f7665640000000000000000000000000000006064820152608401610539565b61068b838383610d6e565b6000828152600b602052604090206001015461073281610f53565b61068b8383610f60565b6000610747836109c8565b82106107bb5760405162461bcd60e51b815260206004820152602b60248201527f455243373231456e756d657261626c653a206f776e657220696e646578206f7560448201527f74206f6620626f756e64730000000000000000000000000000000000000000006064820152608401610539565b506001600160a01b03919091166000908152600660209081526040808320938352929052205490565b6001600160a01b03811633146108625760405162461bcd60e51b815260206004820152602f60248201527f416363657373436f6e74726f6c3a2063616e206f6e6c792072656e6f756e636560448201527f20726f6c657320666f722073656c6600000000000000000000000000000000006064820152608401610539565b61086c8282611002565b5050565b61068b83838360405180602001604052806000815250610ab1565b600061089660085490565b821061090a5760405162461bcd60e51b815260206004820152602c60248201527f455243373231456e756d657261626c653a20676c6f62616c20696e646578206f60448201527f7574206f6620626f756e647300000000000000000000000000000000000000006064820152608401610539565b6008828154811061092b57634e487b7160e01b600052603260045260246000fd5b90600052602060002001549050919050565b6000818152600260205260408120546001600160a01b03168061041b5760405162461bcd60e51b815260206004820152602960248201527f4552433732313a206f776e657220717565727920666f72206e6f6e657869737460448201527f656e7420746f6b656e00000000000000000000000000000000000000000000006064820152608401610539565b60006001600160a01b038216610a465760405162461bcd60e51b815260206004820152602a60248201527f4552433732313a2062616c616e636520717565727920666f7220746865207a6560448201527f726f2061646472657373000000000000000000000000000000000000000000006064820152608401610539565b506001600160a01b031660009081526003602052604090205490565b606060018054610430906125af565b61086c338383611085565b6000610a8781610f53565b61086c7f9f2df0fed2c77648de5860a4cc508cd0818c85b8b8a1ab4ceeef8d981c8956a683610f60565b610abb3383610c66565b610b2d5760405162461bcd60e51b815260206004820152603160248201527f4552433732313a207472616e736665722063616c6c6572206973206e6f74206f60448201527f776e6572206e6f7220617070726f7665640000000000000000000000000000006064820152608401610539565b610b3984848484611154565b50505050565b606061041b826111dd565b7f9f2df0fed2c77648de5860a4cc508cd0818c85b8b8a1ab4ceeef8d981c8956a6610b7481610f53565b610b7e848461138d565b610b3983836113a7565b6000828152600b6020526040902060010154610ba381610f53565b61068b8383611002565b60006001600160e01b031982167f7965db0b00000000000000000000000000000000000000000000000000000000148061041b575061041b82611450565b6000818152600460205260409020805473ffffffffffffffffffffffffffffffffffffffff19166001600160a01b0384169081179091558190610c2d8261093d565b6001600160a01b03167f8c5be1e5ebec7d5bd14f71427d1e84f3dd0314c0f7b2291e5b200ac8c7c3b92560405160405180910390a45050565b6000818152600260205260408120546001600160a01b0316610cf05760405162461bcd60e51b815260206004820152602c60248201527f4552433732313a206f70657261746f7220717565727920666f72206e6f6e657860448201527f697374656e7420746f6b656e00000000000000000000000000000000000000006064820152608401610539565b6000610cfb8361093d565b9050806001600160a01b0316846001600160a01b03161480610d4257506001600160a01b0380821660009081526005602090815260408083209388168352929052205460ff165b80610d665750836001600160a01b0316610d5b846104b3565b6001600160a01b0316145b949350505050565b826001600160a01b0316610d818261093d565b6001600160a01b031614610dfd5760405162461bcd60e51b815260206004820152602560248201527f4552433732313a207472616e736665722066726f6d20696e636f72726563742060448201527f6f776e65720000000000000000000000000000000000000000000000000000006064820152608401610539565b6001600160a01b038216610e785760405162461bcd60e51b8152602060048201526024808201527f4552433732313a207472616e7366657220746f20746865207a65726f2061646460448201527f72657373000000000000000000000000000000000000000000000000000000006064820152608401610539565b610e8383838361148e565b610e8e600082610beb565b6001600160a01b0383166000908152600360205260408120805460019290610eb7908490612555565b90915550506001600160a01b0382166000908152600360205260408120805460019290610ee590849061250a565b9091555050600081815260026020526040808220805473ffffffffffffffffffffffffffffffffffffffff19166001600160a01b0386811691821790925591518493918716917fddf252ad1be2c89b69c2b068fc378daa952ba7f163c4a11628f55a4df523b3ef91a4505050565b610f5d8133611499565b50565b6000828152600b602090815260408083206001600160a01b038516845290915290205460ff1661086c576000828152600b602090815260408083206001600160a01b03851684529091529020805460ff19166001179055610fbe3390565b6001600160a01b0316816001600160a01b0316837f2f8788117e7eff1d82e926ec794901d17c78024a50270940304540a733656f0d60405160405180910390a45050565b6000828152600b602090815260408083206001600160a01b038516845290915290205460ff161561086c576000828152600b602090815260408083206001600160a01b0385168085529252808320805460ff1916905551339285917ff6391f5c32d9c69d2a47ea670b442974b53935d1edc7fd64eb21e047a839171b9190a45050565b816001600160a01b0316836001600160a01b031614156110e75760405162461bcd60e51b815260206004820152601960248201527f4552433732313a20617070726f766520746f2063616c6c6572000000000000006044820152606401610539565b6001600160a01b03838116600081815260056020908152604080832094871680845294825291829020805460ff191686151590811790915591519182527f17307eab39ab6107e8899845ad3d59bd9653f200f220920489ca2b5937696c31910160405180910390a3505050565b61115f848484610d6e565b61116b84848484611519565b610b395760405162461bcd60e51b815260206004820152603260248201527f4552433732313a207472616e7366657220746f206e6f6e20455243373231526560448201527f63656976657220696d706c656d656e74657200000000000000000000000000006064820152608401610539565b6000818152600260205260409020546060906001600160a01b031661126a5760405162461bcd60e51b815260206004820152603160248201527f45524337323155524953746f726167653a2055524920717565727920666f722060448201527f6e6f6e6578697374656e7420746f6b656e0000000000000000000000000000006064820152608401610539565b6000828152600a602052604081208054611283906125af565b80601f01602080910402602001604051908101604052809291908181526020018280546112af906125af565b80156112fc5780601f106112d1576101008083540402835291602001916112fc565b820191906000526020600020905b8154815290600101906020018083116112df57829003601f168201915b50505050509050600061133f60408051808201909152600881527f68747470733a2f2f000000000000000000000000000000000000000000000000602082015290565b9050805160001415611352575092915050565b81511561138457808260405160200161136c92919061240b565b60405160208183030381529060405292505050919050565b610d66846116ae565b61086c8282604051806020016040528060008152506117c9565b6000828152600260205260409020546001600160a01b03166114315760405162461bcd60e51b815260206004820152602e60248201527f45524337323155524953746f726167653a2055524920736574206f66206e6f6e60448201527f6578697374656e7420746f6b656e0000000000000000000000000000000000006064820152608401610539565b6000828152600a60209081526040909120825161068b92840190612077565b60006001600160e01b031982167f780e9d6300000000000000000000000000000000000000000000000000000000148061041b575061041b82611852565b61068b8383836118ed565b6000828152600b602090815260408083206001600160a01b038516845290915290205460ff1661086c576114d7816001600160a01b031660146119a5565b6114e28360206119a5565b6040516020016114f392919061243a565b60408051601f198184030181529082905262461bcd60e51b8252610539916004016124f7565b60006001600160a01b0384163b156116a3576040517f150b7a020000000000000000000000000000000000000000000000000000000081526001600160a01b0385169063150b7a02906115769033908990889088906004016124bb565b602060405180830381600087803b15801561159057600080fd5b505af19250505080156115c0575060408051601f3d908101601f191682019092526115bd918101906123c3565b60015b611670573d8080156115ee576040519150601f19603f3d011682016040523d82523d6000602084013e6115f3565b606091505b5080516116685760405162461bcd60e51b815260206004820152603260248201527f4552433732313a207472616e7366657220746f206e6f6e20455243373231526560448201527f63656976657220696d706c656d656e74657200000000000000000000000000006064820152608401610539565b805181602001fd5b6001600160e01b0319167f150b7a0200000000000000000000000000000000000000000000000000000000149050610d66565b506001949350505050565b6000818152600260205260409020546060906001600160a01b031661173b5760405162461bcd60e51b815260206004820152602f60248201527f4552433732314d657461646174613a2055524920717565727920666f72206e6f60448201527f6e6578697374656e7420746f6b656e00000000000000000000000000000000006064820152608401610539565b600061177760408051808201909152600881527f68747470733a2f2f000000000000000000000000000000000000000000000000602082015290565b9050600081511161179757604051806020016040528060008152506117c2565b806117a184611c14565b6040516020016117b292919061240b565b6040516020818303038152906040525b9392505050565b6117d38383611d62565b6117e06000848484611519565b61068b5760405162461bcd60e51b815260206004820152603260248201527f4552433732313a207472616e7366657220746f206e6f6e20455243373231526560448201527f63656976657220696d706c656d656e74657200000000000000000000000000006064820152608401610539565b60006001600160e01b031982167f80ac58cd0000000000000000000000000000000000000000000000000000000014806118b557506001600160e01b031982167f5b5e139f00000000000000000000000000000000000000000000000000000000145b8061041b57507f01ffc9a7000000000000000000000000000000000000000000000000000000006001600160e01b031983161461041b565b6001600160a01b0383166119485761194381600880546000838152600960205260408120829055600182018355919091527ff3f7a9fe364faab93b216da50a3214154f22a0a2b415b23a84c8169e8b636ee30155565b61196b565b816001600160a01b0316836001600160a01b03161461196b5761196b8382611ebd565b6001600160a01b0382166119825761068b81611f5a565b826001600160a01b0316826001600160a01b03161461068b5761068b8282612033565b606060006119b4836002612536565b6119bf90600261250a565b67ffffffffffffffff8111156119e557634e487b7160e01b600052604160045260246000fd5b6040519080825280601f01601f191660200182016040528015611a0f576020820181803683370190505b5090507f300000000000000000000000000000000000000000000000000000000000000081600081518110611a5457634e487b7160e01b600052603260045260246000fd5b60200101907effffffffffffffffffffffffffffffffffffffffffffffffffffffffffffff1916908160001a9053507f780000000000000000000000000000000000000000000000000000000000000081600181518110611ac557634e487b7160e01b600052603260045260246000fd5b60200101907effffffffffffffffffffffffffffffffffffffffffffffffffffffffffffff1916908160001a9053506000611b01846002612536565b611b0c90600161250a565b90505b6001811115611bc5577f303132333435363738396162636465660000000000000000000000000000000085600f1660108110611b5b57634e487b7160e01b600052603260045260246000fd5b1a60f81b828281518110611b7f57634e487b7160e01b600052603260045260246000fd5b60200101907effffffffffffffffffffffffffffffffffffffffffffffffffffffffffffff1916908160001a90535060049490941c93611bbe81612598565b9050611b0f565b5083156117c25760405162461bcd60e51b815260206004820181905260248201527f537472696e67733a20686578206c656e67746820696e73756666696369656e746044820152606401610539565b606081611c5457505060408051808201909152600181527f3000000000000000000000000000000000000000000000000000000000000000602082015290565b8160005b8115611c7e5780611c68816125ea565b9150611c779050600a83612522565b9150611c58565b60008167ffffffffffffffff811115611ca757634e487b7160e01b600052604160045260246000fd5b6040519080825280601f01601f191660200182016040528015611cd1576020820181803683370190505b5090505b8415610d6657611ce6600183612555565b9150611cf3600a86612605565b611cfe90603061250a565b60f81b818381518110611d2157634e487b7160e01b600052603260045260246000fd5b60200101907effffffffffffffffffffffffffffffffffffffffffffffffffffffffffffff1916908160001a905350611d5b600a86612522565b9450611cd5565b6001600160a01b038216611db85760405162461bcd60e51b815260206004820181905260248201527f4552433732313a206d696e7420746f20746865207a65726f20616464726573736044820152606401610539565b6000818152600260205260409020546001600160a01b031615611e1d5760405162461bcd60e51b815260206004820152601c60248201527f4552433732313a20746f6b656e20616c7265616479206d696e746564000000006044820152606401610539565b611e296000838361148e565b6001600160a01b0382166000908152600360205260408120805460019290611e5290849061250a565b9091555050600081815260026020526040808220805473ffffffffffffffffffffffffffffffffffffffff19166001600160a01b03861690811790915590518392907fddf252ad1be2c89b69c2b068fc378daa952ba7f163c4a11628f55a4df523b3ef908290a45050565b60006001611eca846109c8565b611ed49190612555565b600083815260076020526040902054909150808214611f27576001600160a01b03841660009081526006602090815260408083208584528252808320548484528184208190558352600790915290208190555b5060009182526007602090815260408084208490556001600160a01b039094168352600681528383209183525290812055565b600854600090611f6c90600190612555565b60008381526009602052604081205460088054939450909284908110611fa257634e487b7160e01b600052603260045260246000fd5b906000526020600020015490508060088381548110611fd157634e487b7160e01b600052603260045260246000fd5b600091825260208083209091019290925582815260099091526040808220849055858252812055600880548061201757634e487b7160e01b600052603160045260246000fd5b6001900381819060005260206000200160009055905550505050565b600061203e836109c8565b6001600160a01b039093166000908152600660209081526040808320868452825280832085905593825260079052919091209190915550565b828054612083906125af565b90600052602060002090601f0160209004810192826120a557600085556120eb565b82601f106120be57805160ff19168380011785556120eb565b828001600101855582156120eb579182015b828111156120eb5782518255916020019190600101906120d0565b506120f79291506120fb565b5090565b5b808211156120f757600081556001016120fc565b600067ffffffffffffffff8084111561212b5761212b612645565b604051601f8501601f19908116603f0116810190828211818310171561215357612153612645565b8160405280935085815286868601111561216c57600080fd5b858560208301376000602087830101525050509392505050565b80356001600160a01b038116811461219d57600080fd5b919050565b6000602082840312156121b3578081fd5b6117c282612186565b600080604083850312156121ce578081fd5b6121d783612186565b91506121e560208401612186565b90509250929050565b600080600060608486031215612202578081fd5b61220b84612186565b925061221960208501612186565b9150604084013590509250925092565b6000806000806080858703121561223e578081fd5b61224785612186565b935061225560208601612186565b925060408501359150606085013567ffffffffffffffff811115612277578182fd5b8501601f81018713612287578182fd5b61229687823560208401612110565b91505092959194509250565b600080604083850312156122b4578182fd5b6122bd83612186565b9150602083013580151581146122d1578182fd5b809150509250929050565b600080604083850312156122ee578182fd5b6122f783612186565b946020939093013593505050565b600080600060608486031215612319578283fd5b61232284612186565b925060208401359150604084013567ffffffffffffffff811115612344578182fd5b8401601f81018613612354578182fd5b61236386823560208401612110565b9150509250925092565b60006020828403121561237e578081fd5b5035919050565b60008060408385031215612397578182fd5b823591506121e560208401612186565b6000602082840312156123b8578081fd5b81356117c28161265b565b6000602082840312156123d4578081fd5b81516117c28161265b565b600081518084526123f781602086016020860161256c565b601f01601f19169290920160200192915050565b6000835161241d81846020880161256c565b83519083019061243181836020880161256c565b01949350505050565b7f416363657373436f6e74726f6c3a206163636f756e742000000000000000000081526000835161247281601785016020880161256c565b7f206973206d697373696e6720726f6c652000000000000000000000000000000060179184019182015283516124af81602884016020880161256c565b01602801949350505050565b60006001600160a01b038087168352808616602084015250836040830152608060608301526124ed60808301846123df565b9695505050505050565b6020815260006117c260208301846123df565b6000821982111561251d5761251d612619565b500190565b6000826125315761253161262f565b500490565b600081600019048311821515161561255057612550612619565b500290565b60008282101561256757612567612619565b500390565b60005b8381101561258757818101518382015260200161256f565b83811115610b395750506000910152565b6000816125a7576125a7612619565b506000190190565b600181811c908216806125c357607f821691505b602082108114156125e457634e487b7160e01b600052602260045260246000fd5b50919050565b60006000198214156125fe576125fe612619565b5060010190565b6000826126145761261461262f565b500690565b634e487b7160e01b600052601160045260246000fd5b634e487b7160e01b600052601260045260246000fd5b634e487b7160e01b600052604160045260246000fd5b6001600160e01b031981168114610f5d57600080fdfea2646970667358221220a4c16ce939a7b0e0a6fde45a91e0999127a3c20d5385e335eb4aded3fb97698b64736f6c63430008040033",
  "linkReferences": {},
  "deployedLinkReferences": {}
}